{
  "contractName": "IntegerStorage",
  "abi": [
    {
      "inputs": [
        {
          "internalType": "int256",
          "name": "_newValue",
          "type": "int256"
        }
      ],
      "name": "setValue",
      "outputs": [],
      "stateMutability": "nonpayable",
      "type": "function"
    },
    {
      "inputs": [],
      "name": "getValue",
      "outputs": [
        {
          "internalType": "int256",
          "name": "",
          "type": "int256"
        }
      ],
      "stateMutability": "view",
      "type": "function"
    }
  ],
  "bytecode": "0x608060405234801561000f575f80fd5b506101438061001d5f395ff3fe608060405234801561000f575f80fd5b5060043610610034575f3560e01c806320965255146100385780635093dc7d14610056575b5f80fd5b610040610072565b60405161004d919061009b565b60405180910390f35b610070600480360381019061006b91906100e2565b61007a565b005b5f8054905090565b805f8190555050565b5f819050919050565b61009581610083565b82525050565b5f6020820190506100ae5f83018461008c565b92915050565b5f80fd5b6100c181610083565b81146100cb575f80fd5b50565b5f813590506100dc816100b8565b92915050565b5f602082840312156100f7576100f66100b4565b5b5f610104848285016100ce565b9150509291505056fea2646970667358221220e4ed33507bc237cc44d3ebc6288f9f4479bf070f86380f82e52598f5fecc95d764736f6c63430008150033",
  "immutableReferences": {},
  "source": "// SPDX-License-Identifier: MIT\r\n\r\npragma solidity ^0.8.0;\r\n\r\ncontract IntegerStorage {\r\n\r\n    int private storageValue;\r\n\r\n    function setValue(int _newValue) public {\r\n        storageValue = _newValue;\r\n    }\r\n\r\n    function getValue() public view returns (int) {\r\n        return storageValue;\r\n    }\r\n}\r\n\r\n\r\n",
  "sourcePath": "C:\\Users\\berta\\Desktop\\Solidity-Practice\\TestingTruffle\\contracts\\testTruffle.sol",
  "compiler": {
    "name": "solc",
    "version": "0.8.21+commit.d9974bed.Emscripten.clang"
  },
  "schemaVersion": "3.4.16",
  "updatedAt": "2024-06-16T20:25:03.671Z",
  "devdoc": {
    "kind": "dev",
    "methods": {},
    "version": 1
  },
  "userdoc": {
    "kind": "user",
    "methods": {},
    "version": 1
  }
}