{
  "contractName": "IntegerStorage",
  "abi": [
    {
      "inputs": [],
      "name": "storageValue",
      "outputs": [
        {
          "internalType": "int256",
          "name": "",
          "type": "int256"
        }
      ],
      "stateMutability": "view",
      "type": "function",
      "constant": true
    },
    {
      "inputs": [
        {
          "internalType": "int256",
          "name": "_newValue",
          "type": "int256"
        }
      ],
      "name": "setValue",
      "outputs": [],
      "stateMutability": "nonpayable",
      "type": "function"
    },
    {
      "inputs": [],
      "name": "getValue",
      "outputs": [
        {
          "internalType": "int256",
          "name": "",
          "type": "int256"
        }
      ],
      "stateMutability": "view",
      "type": "function",
      "constant": true
    }
  ],
  "bytecode": "0x608060405234801561001057600080fd5b50610176806100206000396000f3fe608060405234801561001057600080fd5b50600436106100415760003560e01c806320965255146100465780635093dc7d14610064578063a977a97314610080575b600080fd5b61004e61009e565b60405161005b9190610104565b60405180910390f35b61007e600480360381019061007991906100cc565b6100a7565b005b6100886100b1565b6040516100959190610104565b60405180910390f35b60008054905090565b8060008190555050565b60005481565b6000813590506100c681610129565b92915050565b6000602082840312156100de57600080fd5b60006100ec848285016100b7565b91505092915050565b6100fe8161011f565b82525050565b600060208201905061011960008301846100f5565b92915050565b6000819050919050565b6101328161011f565b811461013d57600080fd5b5056fea2646970667358221220085b26cbcac3280ff253c0677b086fcbcd5013983a86c3536157e3a2d924dc3f64736f6c63430008020033",
  "immutableReferences": {},
  "source": "// SPDX-License-Identifier: MIT\r\n\r\npragma solidity ^0.8.2;\r\n\r\ncontract IntegerStorage {\r\n\r\n    int public storageValue;\r\n\r\n    function setValue(int _newValue) public {\r\n        storageValue = _newValue;\r\n    }\r\n\r\n    function getValue() public view returns (int) {\r\n        return storageValue;\r\n    }\r\n}\r\n\r\n\r\n",
  "sourcePath": "C:\\Users\\berta\\Desktop\\Solidity-Practice\\TestingTruffle\\contracts\\testTruffle.sol",
  "compiler": {
    "name": "solc",
    "version": "0.8.2+commit.661d1103.Emscripten.clang"
  },
  "schemaVersion": "3.4.16",
  "updatedAt": "2024-06-17T07:37:04.912Z",
  "networkType": "ethereum",
  "devdoc": {
    "kind": "dev",
    "methods": {},
    "version": 1
  },
  "userdoc": {
    "kind": "user",
    "methods": {},
    "version": 1
  }
}