{
  "contractName": "Transactions",
  "abi": [
    {
      "inputs": [],
      "stateMutability": "nonpayable",
      "type": "constructor"
    },
    {
      "anonymous": false,
      "inputs": [
        {
          "indexed": true,
          "internalType": "address",
          "name": "from",
          "type": "address"
        },
        {
          "indexed": true,
          "internalType": "address",
          "name": "to",
          "type": "address"
        },
        {
          "indexed": false,
          "internalType": "uint256",
          "name": "value",
          "type": "uint256"
        }
      ],
      "name": "Request",
      "type": "event"
    },
    {
      "anonymous": false,
      "inputs": [
        {
          "indexed": true,
          "internalType": "address",
          "name": "from",
          "type": "address"
        },
        {
          "indexed": true,
          "internalType": "address",
          "name": "to",
          "type": "address"
        },
        {
          "indexed": false,
          "internalType": "uint256",
          "name": "value",
          "type": "uint256"
        }
      ],
      "name": "Transfer",
      "type": "event"
    },
    {
      "inputs": [
        {
          "internalType": "address",
          "name": "",
          "type": "address"
        }
      ],
      "name": "balances",
      "outputs": [
        {
          "internalType": "uint256",
          "name": "",
          "type": "uint256"
        }
      ],
      "stateMutability": "view",
      "type": "function",
      "constant": true
    },
    {
      "inputs": [
        {
          "internalType": "address",
          "name": "",
          "type": "address"
        },
        {
          "internalType": "address",
          "name": "",
          "type": "address"
        }
      ],
      "name": "requests",
      "outputs": [
        {
          "internalType": "uint256",
          "name": "",
          "type": "uint256"
        }
      ],
      "stateMutability": "view",
      "type": "function",
      "constant": true
    },
    {
      "inputs": [
        {
          "internalType": "address",
          "name": "receiver",
          "type": "address"
        },
        {
          "internalType": "uint256",
          "name": "amount",
          "type": "uint256"
        }
      ],
      "name": "sendMoney",
      "outputs": [
        {
          "internalType": "bool",
          "name": "sufficient",
          "type": "bool"
        }
      ],
      "stateMutability": "nonpayable",
      "type": "function"
    },
    {
      "inputs": [
        {
          "internalType": "address",
          "name": "addr",
          "type": "address"
        }
      ],
      "name": "getBalance",
      "outputs": [
        {
          "internalType": "uint256",
          "name": "",
          "type": "uint256"
        }
      ],
      "stateMutability": "view",
      "type": "function",
      "constant": true
    },
    {
      "inputs": [
        {
          "internalType": "address",
          "name": "receiver",
          "type": "address"
        },
        {
          "internalType": "uint256",
          "name": "amount",
          "type": "uint256"
        }
      ],
      "name": "requestMoney",
      "outputs": [],
      "stateMutability": "nonpayable",
      "type": "function"
    },
    {
      "inputs": [
        {
          "internalType": "address",
          "name": "requester",
          "type": "address"
        },
        {
          "internalType": "uint256",
          "name": "amount",
          "type": "uint256"
        }
      ],
      "name": "approveRequest",
      "outputs": [
        {
          "internalType": "bool",
          "name": "sufficient",
          "type": "bool"
        }
      ],
      "stateMutability": "nonpayable",
      "type": "function"
    }
  ],
  "bytecode": "0x608060405234801561001057600080fd5b506127106000803373ffffffffffffffffffffffffffffffffffffffff1673ffffffffffffffffffffffffffffffffffffffff16815260200190815260200160002081905550610ba8806100656000396000f3fe608060405234801561001057600080fd5b50600436106100625760003560e01c80630f8dd04d1461006757806327e235e3146100835780633e3328e2146100b3578063e29c4c29146100e3578063ee4ae2c914610113578063f8b2cb4f14610143575b600080fd5b610081600480360381019061007c9190610812565b610173565b005b61009d600480360381019061009891906107ad565b61026f565b6040516100aa9190610950565b60405180910390f35b6100cd60048036038101906100c89190610812565b610287565b6040516100da91906108d5565b60405180910390f35b6100fd60048036038101906100f891906107d6565b61057a565b60405161010a9190610950565b60405180910390f35b61012d60048036038101906101289190610812565b61059f565b60405161013a91906108d5565b60405180910390f35b61015d600480360381019061015891906107ad565b61073b565b60405161016a9190610950565b60405180910390f35b80600160008473ffffffffffffffffffffffffffffffffffffffff1673ffffffffffffffffffffffffffffffffffffffff16815260200190815260200160002060003373ffffffffffffffffffffffffffffffffffffffff1673ffffffffffffffffffffffffffffffffffffffff16815260200190815260200160002060008282546101ff919061097c565b925050819055508173ffffffffffffffffffffffffffffffffffffffff163373ffffffffffffffffffffffffffffffffffffffff167f199889bb68377137835ceba2106404907a1747d53227634bb4a6b613800e3cb3836040516102639190610950565b60405180910390a35050565b60006020528060005260406000206000915090505481565b600080600160003373ffffffffffffffffffffffffffffffffffffffff1673ffffffffffffffffffffffffffffffffffffffff16815260200190815260200160002060008573ffffffffffffffffffffffffffffffffffffffff1673ffffffffffffffffffffffffffffffffffffffff1681526020019081526020016000205490508281101561034c576040517f08c379a0000000000000000000000000000000000000000000000000000000008152600401610343906108f0565b60405180910390fd5b826000803373ffffffffffffffffffffffffffffffffffffffff1673ffffffffffffffffffffffffffffffffffffffff1681526020019081526020016000205410156103cd576040517f08c379a00000000000000000000000000000000000000000000000000000000081526004016103c490610930565b60405180910390fd5b82600160003373ffffffffffffffffffffffffffffffffffffffff1673ffffffffffffffffffffffffffffffffffffffff16815260200190815260200160002060008673ffffffffffffffffffffffffffffffffffffffff1673ffffffffffffffffffffffffffffffffffffffff168152602001908152602001600020600082825461045991906109d2565b92505081905550826000803373ffffffffffffffffffffffffffffffffffffffff1673ffffffffffffffffffffffffffffffffffffffff16815260200190815260200160002060008282546104ae91906109d2565b92505081905550826000808673ffffffffffffffffffffffffffffffffffffffff1673ffffffffffffffffffffffffffffffffffffffff1681526020019081526020016000206000828254610503919061097c565b925050819055508373ffffffffffffffffffffffffffffffffffffffff163373ffffffffffffffffffffffffffffffffffffffff167fddf252ad1be2c89b69c2b068fc378daa952ba7f163c4a11628f55a4df523b3ef856040516105679190610950565b60405180910390a3600191505092915050565b6001602052816000526040600020602052806000526040600020600091509150505481565b6000816000803373ffffffffffffffffffffffffffffffffffffffff1673ffffffffffffffffffffffffffffffffffffffff168152602001908152602001600020541015610622576040517f08c379a000000000000000000000000000000000000000000000000000000000815260040161061990610910565b60405180910390fd5b816000803373ffffffffffffffffffffffffffffffffffffffff1673ffffffffffffffffffffffffffffffffffffffff168152602001908152602001600020600082825461067091906109d2565b92505081905550816000808573ffffffffffffffffffffffffffffffffffffffff1673ffffffffffffffffffffffffffffffffffffffff16815260200190815260200160002060008282546106c5919061097c565b925050819055508273ffffffffffffffffffffffffffffffffffffffff163373ffffffffffffffffffffffffffffffffffffffff167fddf252ad1be2c89b69c2b068fc378daa952ba7f163c4a11628f55a4df523b3ef846040516107299190610950565b60405180910390a36001905092915050565b60008060008373ffffffffffffffffffffffffffffffffffffffff1673ffffffffffffffffffffffffffffffffffffffff168152602001908152602001600020549050919050565b60008135905061079281610b44565b92915050565b6000813590506107a781610b5b565b92915050565b6000602082840312156107bf57600080fd5b60006107cd84828501610783565b91505092915050565b600080604083850312156107e957600080fd5b60006107f785828601610783565b925050602061080885828601610783565b9150509250929050565b6000806040838503121561082557600080fd5b600061083385828601610783565b925050602061084485828601610798565b9150509250929050565b61085781610a18565b82525050565b600061086a60318361096b565b915061087582610a7d565b604082019050919050565b600061088d60148361096b565b915061089882610acc565b602082019050919050565b60006108b0602b8361096b565b91506108bb82610af5565b604082019050919050565b6108cf81610a44565b82525050565b60006020820190506108ea600083018461084e565b92915050565b600060208201905081810360008301526109098161085d565b9050919050565b6000602082019050818103600083015261092981610880565b9050919050565b60006020820190508181036000830152610949816108a3565b9050919050565b600060208201905061096560008301846108c6565b92915050565b600082825260208201905092915050565b600061098782610a44565b915061099283610a44565b9250827fffffffffffffffffffffffffffffffffffffffffffffffffffffffffffffffff038211156109c7576109c6610a4e565b5b828201905092915050565b60006109dd82610a44565b91506109e883610a44565b9250828210156109fb576109fa610a4e565b5b828203905092915050565b6000610a1182610a24565b9050919050565b60008115159050919050565b600073ffffffffffffffffffffffffffffffffffffffff82169050919050565b6000819050919050565b7f4e487b7100000000000000000000000000000000000000000000000000000000600052601160045260246000fd5b7f52657175657374656420616d6f756e74206973206c657373207468616e20746860008201527f6520617070726f76616c20616d6f756e74000000000000000000000000000000602082015250565b7f496e73756666696369656e742062616c616e6365000000000000000000000000600082015250565b7f496e73756666696369656e742062616c616e636520746f2066756c66696c6c2060008201527f7468652072657175657374000000000000000000000000000000000000000000602082015250565b610b4d81610a06565b8114610b5857600080fd5b50565b610b6481610a44565b8114610b6f57600080fd5b5056fea2646970667358221220345398f2008aa6d5ca35fc1c8b5c3bcded5dedfdd73c986ca64fff61e9f0ddcc64736f6c63430008020033",
  "immutableReferences": {},
  "source": "// SPDX-License-Identifier: MIT\r\n\r\npragma solidity ^0.8.2;\r\n\r\ncontract Transactions {\r\n\r\n    mapping(address => uint256) public balances;\r\n    mapping(address => mapping(address => uint256)) public requests;\r\n\r\n    event Transfer(address indexed from, address indexed to, uint256 value);\r\n    event Request(address indexed from, address indexed to, uint256 value);\r\n\r\n    constructor() {\r\n        balances[msg.sender] = 10000;\r\n    }\r\n\r\n    function sendMoney(address receiver, uint256 amount) public returns (bool sufficient) {\r\n        require(balances[msg.sender] >= amount, \"Insufficient balance\");\r\n        balances[msg.sender] -= amount;\r\n        balances[receiver] += amount;\r\n        emit Transfer(msg.sender, receiver, amount);\r\n        return true;\r\n    }\r\n\r\n    function getBalance(address addr) public view returns (uint256) {\r\n        return balances[addr];\r\n    }\r\n\r\n    function requestMoney(address receiver, uint256 amount) public {\r\n        requests[receiver][msg.sender] += amount;\r\n        emit Request(msg.sender, receiver, amount);\r\n    }\r\n\r\n    function approveRequest(address requester, uint256 amount) public returns (bool sufficient) {\r\n        uint256 requestedAmount = requests[msg.sender][requester];\r\n        require(requestedAmount >= amount, \"Requested amount is less than the approval amount\");\r\n        require(balances[msg.sender] >= amount, \"Insufficient balance to fulfill the request\");\r\n\r\n        requests[msg.sender][requester] -= amount;\r\n        balances[msg.sender] -= amount;\r\n        balances[requester] += amount;\r\n        emit Transfer(msg.sender, requester, amount);\r\n        return true;\r\n    }\r\n}\r\n",
  "sourcePath": "C:\\Users\\berta\\Desktop\\Solidity-Practice\\BankAccount\\contracts\\transaction.sol",
  "compiler": {
    "name": "solc",
    "version": "0.8.2+commit.661d1103.Emscripten.clang"
  },
  "schemaVersion": "3.4.16",
  "updatedAt": "2024-06-17T08:04:05.326Z",
  "networkType": "ethereum",
  "devdoc": {
    "kind": "dev",
    "methods": {},
    "version": 1
  },
  "userdoc": {
    "kind": "user",
    "methods": {},
    "version": 1
  }
}